{
  "_format": "hh-sol-artifact-1",
  "contractName": "NFT",
  "sourceName": "contracts/NFT.sol",
  "abi": [
    {
      "inputs": [],
      "stateMutability": "nonpayable",
      "type": "constructor"
    },
    {
      "anonymous": false,
      "inputs": [
        {
          "indexed": true,
          "internalType": "address",
          "name": "owner",
          "type": "address"
        },
        {
          "indexed": true,
          "internalType": "address",
          "name": "approved",
          "type": "address"
        },
        {
          "indexed": true,
          "internalType": "uint256",
          "name": "tokenId",
          "type": "uint256"
        }
      ],
      "name": "Approval",
      "type": "event"
    },
    {
      "anonymous": false,
      "inputs": [
        {
          "indexed": true,
          "internalType": "address",
          "name": "owner",
          "type": "address"
        },
        {
          "indexed": true,
          "internalType": "address",
          "name": "operator",
          "type": "address"
        },
        {
          "indexed": false,
          "internalType": "bool",
          "name": "approved",
          "type": "bool"
        }
      ],
      "name": "ApprovalForAll",
      "type": "event"
    },
    {
      "anonymous": false,
      "inputs": [
        {
          "indexed": true,
          "internalType": "address",
          "name": "previousOwner",
          "type": "address"
        },
        {
          "indexed": true,
          "internalType": "address",
          "name": "newOwner",
          "type": "address"
        }
      ],
      "name": "OwnershipTransferred",
      "type": "event"
    },
    {
      "anonymous": false,
      "inputs": [
        {
          "indexed": true,
          "internalType": "address",
          "name": "from",
          "type": "address"
        },
        {
          "indexed": true,
          "internalType": "address",
          "name": "to",
          "type": "address"
        },
        {
          "indexed": true,
          "internalType": "uint256",
          "name": "tokenId",
          "type": "uint256"
        }
      ],
      "name": "Transfer",
      "type": "event"
    },
    {
      "inputs": [
        {
          "internalType": "address",
          "name": "to",
          "type": "address"
        },
        {
          "internalType": "uint256",
          "name": "tokenId",
          "type": "uint256"
        }
      ],
      "name": "approve",
      "outputs": [],
      "stateMutability": "nonpayable",
      "type": "function"
    },
    {
      "inputs": [
        {
          "internalType": "address",
          "name": "owner",
          "type": "address"
        }
      ],
      "name": "balanceOf",
      "outputs": [
        {
          "internalType": "uint256",
          "name": "",
          "type": "uint256"
        }
      ],
      "stateMutability": "view",
      "type": "function"
    },
    {
      "inputs": [
        {
          "internalType": "uint256",
          "name": "tokenId",
          "type": "uint256"
        }
      ],
      "name": "getApproved",
      "outputs": [
        {
          "internalType": "address",
          "name": "",
          "type": "address"
        }
      ],
      "stateMutability": "view",
      "type": "function"
    },
    {
      "inputs": [
        {
          "internalType": "address",
          "name": "owner",
          "type": "address"
        },
        {
          "internalType": "address",
          "name": "operator",
          "type": "address"
        }
      ],
      "name": "isApprovedForAll",
      "outputs": [
        {
          "internalType": "bool",
          "name": "",
          "type": "bool"
        }
      ],
      "stateMutability": "view",
      "type": "function"
    },
    {
      "inputs": [],
      "name": "name",
      "outputs": [
        {
          "internalType": "string",
          "name": "",
          "type": "string"
        }
      ],
      "stateMutability": "view",
      "type": "function"
    },
    {
      "inputs": [],
      "name": "owner",
      "outputs": [
        {
          "internalType": "address",
          "name": "",
          "type": "address"
        }
      ],
      "stateMutability": "view",
      "type": "function"
    },
    {
      "inputs": [
        {
          "internalType": "uint256",
          "name": "tokenId",
          "type": "uint256"
        }
      ],
      "name": "ownerOf",
      "outputs": [
        {
          "internalType": "address",
          "name": "",
          "type": "address"
        }
      ],
      "stateMutability": "view",
      "type": "function"
    },
    {
      "inputs": [],
      "name": "renounceOwnership",
      "outputs": [],
      "stateMutability": "nonpayable",
      "type": "function"
    },
    {
      "inputs": [
        {
          "internalType": "uint256",
          "name": "_tokenId",
          "type": "uint256"
        },
        {
          "internalType": "uint256",
          "name": "_salePrice",
          "type": "uint256"
        }
      ],
      "name": "royaltyInfo",
      "outputs": [
        {
          "internalType": "address",
          "name": "",
          "type": "address"
        },
        {
          "internalType": "uint256",
          "name": "",
          "type": "uint256"
        }
      ],
      "stateMutability": "view",
      "type": "function"
    },
    {
      "inputs": [
        {
          "internalType": "address",
          "name": "account",
          "type": "address"
        },
        {
          "internalType": "uint256",
          "name": "amount",
          "type": "uint256"
        }
      ],
      "name": "safeMint",
      "outputs": [],
      "stateMutability": "nonpayable",
      "type": "function"
    },
    {
      "inputs": [
        {
          "internalType": "address",
          "name": "from",
          "type": "address"
        },
        {
          "internalType": "address",
          "name": "to",
          "type": "address"
        },
        {
          "internalType": "uint256",
          "name": "tokenId",
          "type": "uint256"
        }
      ],
      "name": "safeTransferFrom",
      "outputs": [],
      "stateMutability": "nonpayable",
      "type": "function"
    },
    {
      "inputs": [
        {
          "internalType": "address",
          "name": "from",
          "type": "address"
        },
        {
          "internalType": "address",
          "name": "to",
          "type": "address"
        },
        {
          "internalType": "uint256",
          "name": "tokenId",
          "type": "uint256"
        },
        {
          "internalType": "bytes",
          "name": "data",
          "type": "bytes"
        }
      ],
      "name": "safeTransferFrom",
      "outputs": [],
      "stateMutability": "nonpayable",
      "type": "function"
    },
    {
      "inputs": [
        {
          "internalType": "address",
          "name": "operator",
          "type": "address"
        },
        {
          "internalType": "bool",
          "name": "approved",
          "type": "bool"
        }
      ],
      "name": "setApprovalForAll",
      "outputs": [],
      "stateMutability": "nonpayable",
      "type": "function"
    },
    {
      "inputs": [
        {
          "internalType": "uint256",
          "name": "tokenId",
          "type": "uint256"
        },
        {
          "internalType": "address",
          "name": "receiver",
          "type": "address"
        },
        {
          "internalType": "uint96",
          "name": "royaltyAmount",
          "type": "uint96"
        }
      ],
      "name": "setTokenRoyalty",
      "outputs": [],
      "stateMutability": "nonpayable",
      "type": "function"
    },
    {
      "inputs": [
        {
          "internalType": "bytes4",
          "name": "interfaceId",
          "type": "bytes4"
        }
      ],
      "name": "supportsInterface",
      "outputs": [
        {
          "internalType": "bool",
          "name": "",
          "type": "bool"
        }
      ],
      "stateMutability": "view",
      "type": "function"
    },
    {
      "inputs": [],
      "name": "symbol",
      "outputs": [
        {
          "internalType": "string",
          "name": "",
          "type": "string"
        }
      ],
      "stateMutability": "view",
      "type": "function"
    },
    {
      "inputs": [
        {
          "internalType": "uint256",
          "name": "tokenId",
          "type": "uint256"
        }
      ],
      "name": "tokenURI",
      "outputs": [
        {
          "internalType": "string",
          "name": "",
          "type": "string"
        }
      ],
      "stateMutability": "view",
      "type": "function"
    },
    {
      "inputs": [
        {
          "internalType": "address",
          "name": "from",
          "type": "address"
        },
        {
          "internalType": "address",
          "name": "to",
          "type": "address"
        },
        {
          "internalType": "uint256",
          "name": "tokenId",
          "type": "uint256"
        }
      ],
      "name": "transferFrom",
      "outputs": [],
      "stateMutability": "nonpayable",
      "type": "function"
    },
    {
      "inputs": [
        {
          "internalType": "address",
          "name": "newOwner",
          "type": "address"
        }
      ],
      "name": "transferOwnership",
      "outputs": [],
      "stateMutability": "nonpayable",
      "type": "function"
    }
  ],
  "bytecode": "0x60806040523480156200001157600080fd5b506040518060400160405280600681526020017f4d59204e465400000000000000000000000000000000000000000000000000008152506040518060400160405280600481526020017f4d4e46540000000000000000000000000000000000000000000000000000000081525081600290816200008f919062000a84565b508060039081620000a1919062000a84565b505050620000c4620000b8620000dd60201b60201c565b620000e560201b60201c565b620000d7336001620001ab60201b60201c565b62000f75565b600033905090565b6000600860009054906101000a900473ffffffffffffffffffffffffffffffffffffffff16905081600860006101000a81548173ffffffffffffffffffffffffffffffffffffffff021916908373ffffffffffffffffffffffffffffffffffffffff1602179055508173ffffffffffffffffffffffffffffffffffffffff168173ffffffffffffffffffffffffffffffffffffffff167f8be0079c531659141344cd1fd0a4f28419497f9722a3daafe3b4186f6b6457e060405160405180910390a35050565b620001cd828260405180602001604052806000815250620001d160201b60201c565b5050565b620001e383836200023f60201b60201c565b620001f860008484846200048560201b60201c565b6200023a576040517f08c379a0000000000000000000000000000000000000000000000000000000008152600401620002319062000bf2565b60405180910390fd5b505050565b600073ffffffffffffffffffffffffffffffffffffffff168273ffffffffffffffffffffffffffffffffffffffff1603620002b1576040517f08c379a0000000000000000000000000000000000000000000000000000000008152600401620002a89062000c64565b60405180910390fd5b620002c2816200062e60201b60201c565b1562000305576040517f08c379a0000000000000000000000000000000000000000000000000000000008152600401620002fc9062000cd6565b60405180910390fd5b6200031b6000838360016200067760201b60201c565b6200032c816200062e60201b60201c565b156200036f576040517f08c379a0000000000000000000000000000000000000000000000000000000008152600401620003669062000cd6565b60405180910390fd5b6001600560008473ffffffffffffffffffffffffffffffffffffffff1673ffffffffffffffffffffffffffffffffffffffff16815260200190815260200160002060008282540192505081905550816004600083815260200190815260200160002060006101000a81548173ffffffffffffffffffffffffffffffffffffffff021916908373ffffffffffffffffffffffffffffffffffffffff160217905550808273ffffffffffffffffffffffffffffffffffffffff16600073ffffffffffffffffffffffffffffffffffffffff167fddf252ad1be2c89b69c2b068fc378daa952ba7f163c4a11628f55a4df523b3ef60405160405180910390a462000481600083836001620007a460201b60201c565b5050565b6000620004b38473ffffffffffffffffffffffffffffffffffffffff16620007aa60201b62000c581760201c565b1562000621578373ffffffffffffffffffffffffffffffffffffffff1663150b7a02620004e5620000dd60201b60201c565b8786866040518563ffffffff1660e01b815260040162000509949392919062000de8565b6020604051808303816000875af19250505080156200054857506040513d601f19601f8201168201806040525081019062000545919062000e9e565b60015b620005d0573d80600081146200057b576040519150601f19603f3d011682016040523d82523d6000602084013e62000580565b606091505b506000815103620005c8576040517f08c379a0000000000000000000000000000000000000000000000000000000008152600401620005bf9062000bf2565b60405180910390fd5b805181602001fd5b63150b7a0260e01b7bffffffffffffffffffffffffffffffffffffffffffffffffffffffff1916817bffffffffffffffffffffffffffffffffffffffffffffffffffffffff19161491505062000626565b600190505b949350505050565b60008073ffffffffffffffffffffffffffffffffffffffff166200065883620007cd60201b60201c565b73ffffffffffffffffffffffffffffffffffffffff1614159050919050565b60018111156200079e57600073ffffffffffffffffffffffffffffffffffffffff168473ffffffffffffffffffffffffffffffffffffffff16146200070f5780600560008673ffffffffffffffffffffffffffffffffffffffff1673ffffffffffffffffffffffffffffffffffffffff168152602001908152602001600020600082825462000707919062000eff565b925050819055505b600073ffffffffffffffffffffffffffffffffffffffff168373ffffffffffffffffffffffffffffffffffffffff16146200079d5780600560008573ffffffffffffffffffffffffffffffffffffffff1673ffffffffffffffffffffffffffffffffffffffff168152602001908152602001600020600082825462000795919062000f3a565b925050819055505b5b50505050565b50505050565b6000808273ffffffffffffffffffffffffffffffffffffffff163b119050919050565b60006004600083815260200190815260200160002060009054906101000a900473ffffffffffffffffffffffffffffffffffffffff169050919050565b600081519050919050565b7f4e487b7100000000000000000000000000000000000000000000000000000000600052604160045260246000fd5b7f4e487b7100000000000000000000000000000000000000000000000000000000600052602260045260246000fd5b600060028204905060018216806200088c57607f821691505b602082108103620008a257620008a162000844565b5b50919050565b60008190508160005260206000209050919050565b60006020601f8301049050919050565b600082821b905092915050565b6000600883026200090c7fffffffffffffffffffffffffffffffffffffffffffffffffffffffffffffffff82620008cd565b620009188683620008cd565b95508019841693508086168417925050509392505050565b6000819050919050565b6000819050919050565b6000620009656200095f620009598462000930565b6200093a565b62000930565b9050919050565b6000819050919050565b620009818362000944565b6200099962000990826200096c565b848454620008da565b825550505050565b600090565b620009b0620009a1565b620009bd81848462000976565b505050565b5b81811015620009e557620009d9600082620009a6565b600181019050620009c3565b5050565b601f82111562000a3457620009fe81620008a8565b62000a0984620008bd565b8101602085101562000a19578190505b62000a3162000a2885620008bd565b830182620009c2565b50505b505050565b600082821c905092915050565b600062000a596000198460080262000a39565b1980831691505092915050565b600062000a74838362000a46565b9150826002028217905092915050565b62000a8f826200080a565b67ffffffffffffffff81111562000aab5762000aaa62000815565b5b62000ab7825462000873565b62000ac4828285620009e9565b600060209050601f83116001811462000afc576000841562000ae7578287015190505b62000af3858262000a66565b86555062000b63565b601f19841662000b0c86620008a8565b60005b8281101562000b365784890151825560018201915060208501945060208101905062000b0f565b8683101562000b56578489015162000b52601f89168262000a46565b8355505b6001600288020188555050505b505050505050565b600082825260208201905092915050565b7f4552433732313a207472616e7366657220746f206e6f6e20455243373231526560008201527f63656976657220696d706c656d656e7465720000000000000000000000000000602082015250565b600062000bda60328362000b6b565b915062000be78262000b7c565b604082019050919050565b6000602082019050818103600083015262000c0d8162000bcb565b9050919050565b7f4552433732313a206d696e7420746f20746865207a65726f2061646472657373600082015250565b600062000c4c60208362000b6b565b915062000c598262000c14565b602082019050919050565b6000602082019050818103600083015262000c7f8162000c3d565b9050919050565b7f4552433732313a20746f6b656e20616c7265616479206d696e74656400000000600082015250565b600062000cbe601c8362000b6b565b915062000ccb8262000c86565b602082019050919050565b6000602082019050818103600083015262000cf18162000caf565b9050919050565b600073ffffffffffffffffffffffffffffffffffffffff82169050919050565b600062000d258262000cf8565b9050919050565b62000d378162000d18565b82525050565b62000d488162000930565b82525050565b600081519050919050565b600082825260208201905092915050565b60005b8381101562000d8a57808201518184015260208101905062000d6d565b60008484015250505050565b6000601f19601f8301169050919050565b600062000db48262000d4e565b62000dc0818562000d59565b935062000dd281856020860162000d6a565b62000ddd8162000d96565b840191505092915050565b600060808201905062000dff600083018762000d2c565b62000e0e602083018662000d2c565b62000e1d604083018562000d3d565b818103606083015262000e31818462000da7565b905095945050505050565b600080fd5b60007fffffffff0000000000000000000000000000000000000000000000000000000082169050919050565b62000e788162000e41565b811462000e8457600080fd5b50565b60008151905062000e988162000e6d565b92915050565b60006020828403121562000eb75762000eb662000e3c565b5b600062000ec78482850162000e87565b91505092915050565b7f4e487b7100000000000000000000000000000000000000000000000000000000600052601160045260246000fd5b600062000f0c8262000930565b915062000f198362000930565b925082820390508181111562000f345762000f3362000ed0565b5b92915050565b600062000f478262000930565b915062000f548362000930565b925082820190508082111562000f6f5762000f6e62000ed0565b5b92915050565b61310d8062000f856000396000f3fe608060405234801561001057600080fd5b50600436106101215760003560e01c806370a08231116100ad578063a22cb46511610071578063a22cb46514610307578063b88d4fde14610323578063c87b56dd1461033f578063e985e9c51461036f578063f2fde38b1461039f57610121565b806370a0823114610275578063715018a6146102a55780638da5cb5b146102af57806395d89b41146102cd578063a1448194146102eb57610121565b806323b872dd116100f457806323b872dd146101c05780632a55205a146101dc57806342842e0e1461020d5780635944c753146102295780636352211e1461024557610121565b806301ffc9a71461012657806306fdde0314610156578063081812fc14610174578063095ea7b3146101a4575b600080fd5b610140600480360381019061013b9190612003565b6103bb565b60405161014d919061204b565b60405180910390f35b61015e6103cd565b60405161016b91906120f6565b60405180910390f35b61018e6004803603810190610189919061214e565b61045f565b60405161019b91906121bc565b60405180910390f35b6101be60048036038101906101b99190612203565b6104a5565b005b6101da60048036038101906101d59190612243565b6105bc565b005b6101f660048036038101906101f19190612296565b61061c565b6040516102049291906122e5565b60405180910390f35b61022760048036038101906102229190612243565b610806565b005b610243600480360381019061023e9190612352565b610826565b005b61025f600480360381019061025a919061214e565b61083e565b60405161026c91906121bc565b60405180910390f35b61028f600480360381019061028a91906123a5565b6108c4565b60405161029c91906123d2565b60405180910390f35b6102ad61097b565b005b6102b761098f565b6040516102c491906121bc565b60405180910390f35b6102d56109b9565b6040516102e291906120f6565b60405180910390f35b61030560048036038101906103009190612203565b610a4b565b005b610321600480360381019061031c9190612419565b610a61565b005b61033d6004803603810190610338919061258e565b610a77565b005b6103596004803603810190610354919061214e565b610ad9565b60405161036691906120f6565b60405180910390f35b61038960048036038101906103849190612611565b610b41565b604051610396919061204b565b60405180910390f35b6103b960048036038101906103b491906123a5565b610bd5565b005b60006103c682610c7b565b9050919050565b6060600280546103dc90612680565b80601f016020809104026020016040519081016040528092919081815260200182805461040890612680565b80156104555780601f1061042a57610100808354040283529160200191610455565b820191906000526020600020905b81548152906001019060200180831161043857829003601f168201915b5050505050905090565b600061046a82610d5d565b6006600083815260200190815260200160002060009054906101000a900473ffffffffffffffffffffffffffffffffffffffff169050919050565b60006104b08261083e565b90508073ffffffffffffffffffffffffffffffffffffffff168373ffffffffffffffffffffffffffffffffffffffff1603610520576040517f08c379a000000000000000000000000000000000000000000000000000000000815260040161051790612723565b60405180910390fd5b8073ffffffffffffffffffffffffffffffffffffffff1661053f610da8565b73ffffffffffffffffffffffffffffffffffffffff16148061056e575061056d81610568610da8565b610b41565b5b6105ad576040517f08c379a00000000000000000000000000000000000000000000000000000000081526004016105a4906127b5565b60405180910390fd5b6105b78383610db0565b505050565b6105cd6105c7610da8565b82610e69565b61060c576040517f08c379a000000000000000000000000000000000000000000000000000000000815260040161060390612847565b60405180910390fd5b610617838383610efe565b505050565b6000806000600160008681526020019081526020016000206040518060400160405290816000820160009054906101000a900473ffffffffffffffffffffffffffffffffffffffff1673ffffffffffffffffffffffffffffffffffffffff1673ffffffffffffffffffffffffffffffffffffffff1681526020016000820160149054906101000a90046bffffffffffffffffffffffff166bffffffffffffffffffffffff166bffffffffffffffffffffffff16815250509050600073ffffffffffffffffffffffffffffffffffffffff16816000015173ffffffffffffffffffffffffffffffffffffffff16036107b15760006040518060400160405290816000820160009054906101000a900473ffffffffffffffffffffffffffffffffffffffff1673ffffffffffffffffffffffffffffffffffffffff1673ffffffffffffffffffffffffffffffffffffffff1681526020016000820160149054906101000a90046bffffffffffffffffffffffff166bffffffffffffffffffffffff166bffffffffffffffffffffffff168152505090505b60006107bb6111f7565b6bffffffffffffffffffffffff1682602001516bffffffffffffffffffffffff16866107e79190612896565b6107f19190612907565b90508160000151819350935050509250929050565b61082183838360405180602001604052806000815250610a77565b505050565b61082e611201565b61083983838361127f565b505050565b60008061084a83611426565b9050600073ffffffffffffffffffffffffffffffffffffffff168173ffffffffffffffffffffffffffffffffffffffff16036108bb576040517f08c379a00000000000000000000000000000000000000000000000000000000081526004016108b290612984565b60405180910390fd5b80915050919050565b60008073ffffffffffffffffffffffffffffffffffffffff168273ffffffffffffffffffffffffffffffffffffffff1603610934576040517f08c379a000000000000000000000000000000000000000000000000000000000815260040161092b90612a16565b60405180910390fd5b600560008373ffffffffffffffffffffffffffffffffffffffff1673ffffffffffffffffffffffffffffffffffffffff168152602001908152602001600020549050919050565b610983611201565b61098d6000611463565b565b6000600860009054906101000a900473ffffffffffffffffffffffffffffffffffffffff16905090565b6060600380546109c890612680565b80601f01602080910402602001604051908101604052809291908181526020018280546109f490612680565b8015610a415780601f10610a1657610100808354040283529160200191610a41565b820191906000526020600020905b815481529060010190602001808311610a2457829003601f168201915b5050505050905090565b610a53611201565b610a5d8282611529565b5050565b610a73610a6c610da8565b8383611547565b5050565b610a88610a82610da8565b83610e69565b610ac7576040517f08c379a0000000000000000000000000000000000000000000000000000000008152600401610abe90612847565b60405180910390fd5b610ad3848484846116b3565b50505050565b6060610ae482610d5d565b6000610aee61170f565b90506000815111610b0e5760405180602001604052806000815250610b39565b80610b1884611726565b604051602001610b29929190612a72565b6040516020818303038152906040525b915050919050565b6000600760008473ffffffffffffffffffffffffffffffffffffffff1673ffffffffffffffffffffffffffffffffffffffff16815260200190815260200160002060008373ffffffffffffffffffffffffffffffffffffffff1673ffffffffffffffffffffffffffffffffffffffff16815260200190815260200160002060009054906101000a900460ff16905092915050565b610bdd611201565b600073ffffffffffffffffffffffffffffffffffffffff168173ffffffffffffffffffffffffffffffffffffffff1603610c4c576040517f08c379a0000000000000000000000000000000000000000000000000000000008152600401610c4390612b08565b60405180910390fd5b610c5581611463565b50565b6000808273ffffffffffffffffffffffffffffffffffffffff163b119050919050565b60007f80ac58cd000000000000000000000000000000000000000000000000000000007bffffffffffffffffffffffffffffffffffffffffffffffffffffffff1916827bffffffffffffffffffffffffffffffffffffffffffffffffffffffff19161480610d4657507f5b5e139f000000000000000000000000000000000000000000000000000000007bffffffffffffffffffffffffffffffffffffffffffffffffffffffff1916827bffffffffffffffffffffffffffffffffffffffffffffffffffffffff1916145b80610d565750610d55826117f4565b5b9050919050565b610d668161186e565b610da5576040517f08c379a0000000000000000000000000000000000000000000000000000000008152600401610d9c90612984565b60405180910390fd5b50565b600033905090565b816006600083815260200190815260200160002060006101000a81548173ffffffffffffffffffffffffffffffffffffffff021916908373ffffffffffffffffffffffffffffffffffffffff160217905550808273ffffffffffffffffffffffffffffffffffffffff16610e238361083e565b73ffffffffffffffffffffffffffffffffffffffff167f8c5be1e5ebec7d5bd14f71427d1e84f3dd0314c0f7b2291e5b200ac8c7c3b92560405160405180910390a45050565b600080610e758361083e565b90508073ffffffffffffffffffffffffffffffffffffffff168473ffffffffffffffffffffffffffffffffffffffff161480610eb75750610eb68185610b41565b5b80610ef557508373ffffffffffffffffffffffffffffffffffffffff16610edd8461045f565b73ffffffffffffffffffffffffffffffffffffffff16145b91505092915050565b8273ffffffffffffffffffffffffffffffffffffffff16610f1e8261083e565b73ffffffffffffffffffffffffffffffffffffffff1614610f74576040517f08c379a0000000000000000000000000000000000000000000000000000000008152600401610f6b90612b9a565b60405180910390fd5b600073ffffffffffffffffffffffffffffffffffffffff168273ffffffffffffffffffffffffffffffffffffffff1603610fe3576040517f08c379a0000000000000000000000000000000000000000000000000000000008152600401610fda90612c2c565b60405180910390fd5b610ff083838360016118af565b8273ffffffffffffffffffffffffffffffffffffffff166110108261083e565b73ffffffffffffffffffffffffffffffffffffffff1614611066576040517f08c379a000000000000000000000000000000000000000000000000000000000815260040161105d90612b9a565b60405180910390fd5b6006600082815260200190815260200160002060006101000a81549073ffffffffffffffffffffffffffffffffffffffff02191690556001600560008573ffffffffffffffffffffffffffffffffffffffff1673ffffffffffffffffffffffffffffffffffffffff168152602001908152602001600020600082825403925050819055506001600560008473ffffffffffffffffffffffffffffffffffffffff1673ffffffffffffffffffffffffffffffffffffffff16815260200190815260200160002060008282540192505081905550816004600083815260200190815260200160002060006101000a81548173ffffffffffffffffffffffffffffffffffffffff021916908373ffffffffffffffffffffffffffffffffffffffff160217905550808273ffffffffffffffffffffffffffffffffffffffff168473ffffffffffffffffffffffffffffffffffffffff167fddf252ad1be2c89b69c2b068fc378daa952ba7f163c4a11628f55a4df523b3ef60405160405180910390a46111f283838360016119d5565b505050565b6000612710905090565b611209610da8565b73ffffffffffffffffffffffffffffffffffffffff1661122761098f565b73ffffffffffffffffffffffffffffffffffffffff161461127d576040517f08c379a000000000000000000000000000000000000000000000000000000000815260040161127490612c98565b60405180910390fd5b565b6112876111f7565b6bffffffffffffffffffffffff16816bffffffffffffffffffffffff1611156112e5576040517f08c379a00000000000000000000000000000000000000000000000000000000081526004016112dc90612d2a565b60405180910390fd5b600073ffffffffffffffffffffffffffffffffffffffff168273ffffffffffffffffffffffffffffffffffffffff1603611354576040517f08c379a000000000000000000000000000000000000000000000000000000000815260040161134b90612d96565b60405180910390fd5b60405180604001604052808373ffffffffffffffffffffffffffffffffffffffff168152602001826bffffffffffffffffffffffff168152506001600085815260200190815260200160002060008201518160000160006101000a81548173ffffffffffffffffffffffffffffffffffffffff021916908373ffffffffffffffffffffffffffffffffffffffff16021790555060208201518160000160146101000a8154816bffffffffffffffffffffffff02191690836bffffffffffffffffffffffff160217905550905050505050565b60006004600083815260200190815260200160002060009054906101000a900473ffffffffffffffffffffffffffffffffffffffff169050919050565b6000600860009054906101000a900473ffffffffffffffffffffffffffffffffffffffff16905081600860006101000a81548173ffffffffffffffffffffffffffffffffffffffff021916908373ffffffffffffffffffffffffffffffffffffffff1602179055508173ffffffffffffffffffffffffffffffffffffffff168173ffffffffffffffffffffffffffffffffffffffff167f8be0079c531659141344cd1fd0a4f28419497f9722a3daafe3b4186f6b6457e060405160405180910390a35050565b6115438282604051806020016040528060008152506119db565b5050565b8173ffffffffffffffffffffffffffffffffffffffff168373ffffffffffffffffffffffffffffffffffffffff16036115b5576040517f08c379a00000000000000000000000000000000000000000000000000000000081526004016115ac90612e02565b60405180910390fd5b80600760008573ffffffffffffffffffffffffffffffffffffffff1673ffffffffffffffffffffffffffffffffffffffff16815260200190815260200160002060008473ffffffffffffffffffffffffffffffffffffffff1673ffffffffffffffffffffffffffffffffffffffff16815260200190815260200160002060006101000a81548160ff0219169083151502179055508173ffffffffffffffffffffffffffffffffffffffff168373ffffffffffffffffffffffffffffffffffffffff167f17307eab39ab6107e8899845ad3d59bd9653f200f220920489ca2b5937696c31836040516116a6919061204b565b60405180910390a3505050565b6116be848484610efe565b6116ca84848484611a36565b611709576040517f08c379a000000000000000000000000000000000000000000000000000000000815260040161170090612e94565b60405180910390fd5b50505050565b606060405180602001604052806000815250905090565b60606000600161173584611bbd565b01905060008167ffffffffffffffff81111561175457611753612463565b5b6040519080825280601f01601f1916602001820160405280156117865781602001600182028036833780820191505090505b509050600082602001820190505b6001156117e9578080600190039150507f3031323334353637383961626364656600000000000000000000000000000000600a86061a8153600a85816117dd576117dc6128d8565b5b04945060008503611794575b819350505050919050565b60007f2a55205a000000000000000000000000000000000000000000000000000000007bffffffffffffffffffffffffffffffffffffffffffffffffffffffff1916827bffffffffffffffffffffffffffffffffffffffffffffffffffffffff19161480611867575061186682611d10565b5b9050919050565b60008073ffffffffffffffffffffffffffffffffffffffff1661189083611426565b73ffffffffffffffffffffffffffffffffffffffff1614159050919050565b60018111156119cf57600073ffffffffffffffffffffffffffffffffffffffff168473ffffffffffffffffffffffffffffffffffffffff16146119435780600560008673ffffffffffffffffffffffffffffffffffffffff1673ffffffffffffffffffffffffffffffffffffffff168152602001908152602001600020600082825461193b9190612eb4565b925050819055505b600073ffffffffffffffffffffffffffffffffffffffff168373ffffffffffffffffffffffffffffffffffffffff16146119ce5780600560008573ffffffffffffffffffffffffffffffffffffffff1673ffffffffffffffffffffffffffffffffffffffff16815260200190815260200160002060008282546119c69190612ee8565b925050819055505b5b50505050565b50505050565b6119e58383611d7a565b6119f26000848484611a36565b611a31576040517f08c379a0000000000000000000000000000000000000000000000000000000008152600401611a2890612e94565b60405180910390fd5b505050565b6000611a578473ffffffffffffffffffffffffffffffffffffffff16610c58565b15611bb0578373ffffffffffffffffffffffffffffffffffffffff1663150b7a02611a80610da8565b8786866040518563ffffffff1660e01b8152600401611aa29493929190612f71565b6020604051808303816000875af1925050508015611ade57506040513d601f19601f82011682018060405250810190611adb9190612fd2565b60015b611b60573d8060008114611b0e576040519150601f19603f3d011682016040523d82523d6000602084013e611b13565b606091505b506000815103611b58576040517f08c379a0000000000000000000000000000000000000000000000000000000008152600401611b4f90612e94565b60405180910390fd5b805181602001fd5b63150b7a0260e01b7bffffffffffffffffffffffffffffffffffffffffffffffffffffffff1916817bffffffffffffffffffffffffffffffffffffffffffffffffffffffff191614915050611bb5565b600190505b949350505050565b600080600090507a184f03e93ff9f4daa797ed6e38ed64bf6a1f0100000000000000008310611c1b577a184f03e93ff9f4daa797ed6e38ed64bf6a1f0100000000000000008381611c1157611c106128d8565b5b0492506040810190505b6d04ee2d6d415b85acef81000000008310611c58576d04ee2d6d415b85acef81000000008381611c4e57611c4d6128d8565b5b0492506020810190505b662386f26fc100008310611c8757662386f26fc100008381611c7d57611c7c6128d8565b5b0492506010810190505b6305f5e1008310611cb0576305f5e1008381611ca657611ca56128d8565b5b0492506008810190505b6127108310611cd5576127108381611ccb57611cca6128d8565b5b0492506004810190505b60648310611cf85760648381611cee57611ced6128d8565b5b0492506002810190505b600a8310611d07576001810190505b80915050919050565b60007f01ffc9a7000000000000000000000000000000000000000000000000000000007bffffffffffffffffffffffffffffffffffffffffffffffffffffffff1916827bffffffffffffffffffffffffffffffffffffffffffffffffffffffff1916149050919050565b600073ffffffffffffffffffffffffffffffffffffffff168273ffffffffffffffffffffffffffffffffffffffff1603611de9576040517f08c379a0000000000000000000000000000000000000000000000000000000008152600401611de09061304b565b60405180910390fd5b611df28161186e565b15611e32576040517f08c379a0000000000000000000000000000000000000000000000000000000008152600401611e29906130b7565b60405180910390fd5b611e406000838360016118af565b611e498161186e565b15611e89576040517f08c379a0000000000000000000000000000000000000000000000000000000008152600401611e80906130b7565b60405180910390fd5b6001600560008473ffffffffffffffffffffffffffffffffffffffff1673ffffffffffffffffffffffffffffffffffffffff16815260200190815260200160002060008282540192505081905550816004600083815260200190815260200160002060006101000a81548173ffffffffffffffffffffffffffffffffffffffff021916908373ffffffffffffffffffffffffffffffffffffffff160217905550808273ffffffffffffffffffffffffffffffffffffffff16600073ffffffffffffffffffffffffffffffffffffffff167fddf252ad1be2c89b69c2b068fc378daa952ba7f163c4a11628f55a4df523b3ef60405160405180910390a4611f936000838360016119d5565b5050565b6000604051905090565b600080fd5b600080fd5b60007fffffffff0000000000000000000000000000000000000000000000000000000082169050919050565b611fe081611fab565b8114611feb57600080fd5b50565b600081359050611ffd81611fd7565b92915050565b60006020828403121561201957612018611fa1565b5b600061202784828501611fee565b91505092915050565b60008115159050919050565b61204581612030565b82525050565b6000602082019050612060600083018461203c565b92915050565b600081519050919050565b600082825260208201905092915050565b60005b838110156120a0578082015181840152602081019050612085565b60008484015250505050565b6000601f19601f8301169050919050565b60006120c882612066565b6120d28185612071565b93506120e2818560208601612082565b6120eb816120ac565b840191505092915050565b6000602082019050818103600083015261211081846120bd565b905092915050565b6000819050919050565b61212b81612118565b811461213657600080fd5b50565b60008135905061214881612122565b92915050565b60006020828403121561216457612163611fa1565b5b600061217284828501612139565b91505092915050565b600073ffffffffffffffffffffffffffffffffffffffff82169050919050565b60006121a68261217b565b9050919050565b6121b68161219b565b82525050565b60006020820190506121d160008301846121ad565b92915050565b6121e08161219b565b81146121eb57600080fd5b50565b6000813590506121fd816121d7565b92915050565b6000806040838503121561221a57612219611fa1565b5b6000612228858286016121ee565b925050602061223985828601612139565b9150509250929050565b60008060006060848603121561225c5761225b611fa1565b5b600061226a868287016121ee565b935050602061227b868287016121ee565b925050604061228c86828701612139565b9150509250925092565b600080604083850312156122ad576122ac611fa1565b5b60006122bb85828601612139565b92505060206122cc85828601612139565b9150509250929050565b6122df81612118565b82525050565b60006040820190506122fa60008301856121ad565b61230760208301846122d6565b9392505050565b60006bffffffffffffffffffffffff82169050919050565b61232f8161230e565b811461233a57600080fd5b50565b60008135905061234c81612326565b92915050565b60008060006060848603121561236b5761236a611fa1565b5b600061237986828701612139565b935050602061238a868287016121ee565b925050604061239b8682870161233d565b9150509250925092565b6000602082840312156123bb576123ba611fa1565b5b60006123c9848285016121ee565b91505092915050565b60006020820190506123e760008301846122d6565b92915050565b6123f681612030565b811461240157600080fd5b50565b600081359050612413816123ed565b92915050565b600080604083850312156124305761242f611fa1565b5b600061243e858286016121ee565b925050602061244f85828601612404565b9150509250929050565b600080fd5b600080fd5b7f4e487b7100000000000000000000000000000000000000000000000000000000600052604160045260246000fd5b61249b826120ac565b810181811067ffffffffffffffff821117156124ba576124b9612463565b5b80604052505050565b60006124cd611f97565b90506124d98282612492565b919050565b600067ffffffffffffffff8211156124f9576124f8612463565b5b612502826120ac565b9050602081019050919050565b82818337600083830152505050565b600061253161252c846124de565b6124c3565b90508281526020810184848401111561254d5761254c61245e565b5b61255884828561250f565b509392505050565b600082601f83011261257557612574612459565b5b813561258584826020860161251e565b91505092915050565b600080600080608085870312156125a8576125a7611fa1565b5b60006125b6878288016121ee565b94505060206125c7878288016121ee565b93505060406125d887828801612139565b925050606085013567ffffffffffffffff8111156125f9576125f8611fa6565b5b61260587828801612560565b91505092959194509250565b6000806040838503121561262857612627611fa1565b5b6000612636858286016121ee565b9250506020612647858286016121ee565b9150509250929050565b7f4e487b7100000000000000000000000000000000000000000000000000000000600052602260045260246000fd5b6000600282049050600182168061269857607f821691505b6020821081036126ab576126aa612651565b5b50919050565b7f4552433732313a20617070726f76616c20746f2063757272656e74206f776e6560008201527f7200000000000000000000000000000000000000000000000000000000000000602082015250565b600061270d602183612071565b9150612718826126b1565b604082019050919050565b6000602082019050818103600083015261273c81612700565b9050919050565b7f4552433732313a20617070726f76652063616c6c6572206973206e6f7420746f60008201527f6b656e206f776e6572206f7220617070726f76656420666f7220616c6c000000602082015250565b600061279f603d83612071565b91506127aa82612743565b604082019050919050565b600060208201905081810360008301526127ce81612792565b9050919050565b7f4552433732313a2063616c6c6572206973206e6f7420746f6b656e206f776e6560008201527f72206f7220617070726f76656400000000000000000000000000000000000000602082015250565b6000612831602d83612071565b915061283c826127d5565b604082019050919050565b6000602082019050818103600083015261286081612824565b9050919050565b7f4e487b7100000000000000000000000000000000000000000000000000000000600052601160045260246000fd5b60006128a182612118565b91506128ac83612118565b92508282026128ba81612118565b915082820484148315176128d1576128d0612867565b5b5092915050565b7f4e487b7100000000000000000000000000000000000000000000000000000000600052601260045260246000fd5b600061291282612118565b915061291d83612118565b92508261292d5761292c6128d8565b5b828204905092915050565b7f4552433732313a20696e76616c696420746f6b656e2049440000000000000000600082015250565b600061296e601883612071565b915061297982612938565b602082019050919050565b6000602082019050818103600083015261299d81612961565b9050919050565b7f4552433732313a2061646472657373207a65726f206973206e6f74206120766160008201527f6c6964206f776e65720000000000000000000000000000000000000000000000602082015250565b6000612a00602983612071565b9150612a0b826129a4565b604082019050919050565b60006020820190508181036000830152612a2f816129f3565b9050919050565b600081905092915050565b6000612a4c82612066565b612a568185612a36565b9350612a66818560208601612082565b80840191505092915050565b6000612a7e8285612a41565b9150612a8a8284612a41565b91508190509392505050565b7f4f776e61626c653a206e6577206f776e657220697320746865207a65726f206160008201527f6464726573730000000000000000000000000000000000000000000000000000602082015250565b6000612af2602683612071565b9150612afd82612a96565b604082019050919050565b60006020820190508181036000830152612b2181612ae5565b9050919050565b7f4552433732313a207472616e736665722066726f6d20696e636f72726563742060008201527f6f776e6572000000000000000000000000000000000000000000000000000000602082015250565b6000612b84602583612071565b9150612b8f82612b28565b604082019050919050565b60006020820190508181036000830152612bb381612b77565b9050919050565b7f4552433732313a207472616e7366657220746f20746865207a65726f2061646460008201527f7265737300000000000000000000000000000000000000000000000000000000602082015250565b6000612c16602483612071565b9150612c2182612bba565b604082019050919050565b60006020820190508181036000830152612c4581612c09565b9050919050565b7f4f776e61626c653a2063616c6c6572206973206e6f7420746865206f776e6572600082015250565b6000612c82602083612071565b9150612c8d82612c4c565b602082019050919050565b60006020820190508181036000830152612cb181612c75565b9050919050565b7f455243323938313a20726f79616c7479206665652077696c6c2065786365656460008201527f2073616c65507269636500000000000000000000000000000000000000000000602082015250565b6000612d14602a83612071565b9150612d1f82612cb8565b604082019050919050565b60006020820190508181036000830152612d4381612d07565b9050919050565b7f455243323938313a20496e76616c696420706172616d65746572730000000000600082015250565b6000612d80601b83612071565b9150612d8b82612d4a565b602082019050919050565b60006020820190508181036000830152612daf81612d73565b9050919050565b7f4552433732313a20617070726f766520746f2063616c6c657200000000000000600082015250565b6000612dec601983612071565b9150612df782612db6565b602082019050919050565b60006020820190508181036000830152612e1b81612ddf565b9050919050565b7f4552433732313a207472616e7366657220746f206e6f6e20455243373231526560008201527f63656976657220696d706c656d656e7465720000000000000000000000000000602082015250565b6000612e7e603283612071565b9150612e8982612e22565b604082019050919050565b60006020820190508181036000830152612ead81612e71565b9050919050565b6000612ebf82612118565b9150612eca83612118565b9250828203905081811115612ee257612ee1612867565b5b92915050565b6000612ef382612118565b9150612efe83612118565b9250828201905080821115612f1657612f15612867565b5b92915050565b600081519050919050565b600082825260208201905092915050565b6000612f4382612f1c565b612f4d8185612f27565b9350612f5d818560208601612082565b612f66816120ac565b840191505092915050565b6000608082019050612f8660008301876121ad565b612f9360208301866121ad565b612fa060408301856122d6565b8181036060830152612fb28184612f38565b905095945050505050565b600081519050612fcc81611fd7565b92915050565b600060208284031215612fe857612fe7611fa1565b5b6000612ff684828501612fbd565b91505092915050565b7f4552433732313a206d696e7420746f20746865207a65726f2061646472657373600082015250565b6000613035602083612071565b915061304082612fff565b602082019050919050565b6000602082019050818103600083015261306481613028565b9050919050565b7f4552433732313a20746f6b656e20616c7265616479206d696e74656400000000600082015250565b60006130a1601c83612071565b91506130ac8261306b565b602082019050919050565b600060208201905081810360008301526130d081613094565b905091905056fea264697066735822122038d324e1b716547f5052a5d1050a24352090fe2682e5810b4416b4f59a2a6b1764736f6c63430008110033",
  "linkReferences": {},
  "deployedLinkReferences": {}
}