{
  "_format": "hh-sol-artifact-1",
  "contractName": "NFTMarketplace",
  "sourceName": "contracts/Marketplace.sol",
  "abi": [
    {
      "inputs": [
        {
          "internalType": "address",
          "name": "_nftContract",
          "type": "address"
        },
        {
          "internalType": "address",
          "name": "_tokenContract",
          "type": "address"
        },
        {
          "internalType": "address",
          "name": "_platformWallet",
          "type": "address"
        }
      ],
      "stateMutability": "nonpayable",
      "type": "constructor"
    },
    {
      "anonymous": false,
      "inputs": [
        {
          "indexed": false,
          "internalType": "address",
          "name": "nftAddress",
          "type": "address"
        },
        {
          "indexed": true,
          "internalType": "uint256",
          "name": "itemId",
          "type": "uint256"
        },
        {
          "indexed": true,
          "internalType": "uint256",
          "name": "tokenId",
          "type": "uint256"
        },
        {
          "indexed": false,
          "internalType": "address",
          "name": "seller",
          "type": "address"
        },
        {
          "indexed": false,
          "internalType": "address",
          "name": "owner",
          "type": "address"
        },
        {
          "indexed": false,
          "internalType": "uint256",
          "name": "price",
          "type": "uint256"
        },
        {
          "indexed": false,
          "internalType": "uint256",
          "name": "platformFee",
          "type": "uint256"
        },
        {
          "indexed": false,
          "internalType": "uint256",
          "name": "feeAmount",
          "type": "uint256"
        },
        {
          "indexed": false,
          "internalType": "uint256",
          "name": "totalPrice",
          "type": "uint256"
        },
        {
          "indexed": false,
          "internalType": "bool",
          "name": "sold",
          "type": "bool"
        }
      ],
      "name": "MarketItemCreated",
      "type": "event"
    },
    {
      "inputs": [
        {
          "internalType": "uint256",
          "name": "itemId",
          "type": "uint256"
        }
      ],
      "name": "buyNFT",
      "outputs": [],
      "stateMutability": "nonpayable",
      "type": "function"
    },
    {
      "inputs": [
        {
          "internalType": "uint256",
          "name": "itemId",
          "type": "uint256"
        }
      ],
      "name": "cancelMarketItem",
      "outputs": [],
      "stateMutability": "nonpayable",
      "type": "function"
    },
    {
      "inputs": [
        {
          "internalType": "uint256",
          "name": "tokenId",
          "type": "uint256"
        },
        {
          "internalType": "uint256",
          "name": "priceInToken",
          "type": "uint256"
        }
      ],
      "name": "createMarketItem",
      "outputs": [],
      "stateMutability": "nonpayable",
      "type": "function"
    },
    {
      "inputs": [],
      "name": "nftContract",
      "outputs": [
        {
          "internalType": "contract IERC721",
          "name": "",
          "type": "address"
        }
      ],
      "stateMutability": "view",
      "type": "function"
    },
    {
      "inputs": [
        {
          "internalType": "address",
          "name": "",
          "type": "address"
        },
        {
          "internalType": "address",
          "name": "",
          "type": "address"
        },
        {
          "internalType": "uint256",
          "name": "",
          "type": "uint256"
        },
        {
          "internalType": "bytes",
          "name": "",
          "type": "bytes"
        }
      ],
      "name": "onERC721Received",
      "outputs": [
        {
          "internalType": "bytes4",
          "name": "",
          "type": "bytes4"
        }
      ],
      "stateMutability": "nonpayable",
      "type": "function"
    },
    {
      "inputs": [],
      "name": "platformFee",
      "outputs": [
        {
          "internalType": "uint256",
          "name": "",
          "type": "uint256"
        }
      ],
      "stateMutability": "view",
      "type": "function"
    },
    {
      "inputs": [],
      "name": "platformWallet",
      "outputs": [
        {
          "internalType": "address payable",
          "name": "",
          "type": "address"
        }
      ],
      "stateMutability": "view",
      "type": "function"
    },
    {
      "inputs": [],
      "name": "tokenContract",
      "outputs": [
        {
          "internalType": "contract IERC20",
          "name": "",
          "type": "address"
        }
      ],
      "stateMutability": "view",
      "type": "function"
    }
  ],
  "bytecode": "0x608060405260fa6006553480156200001657600080fd5b5060405162001a9738038062001a9783398181016040528101906200003c9190620001bb565b600160008190555033600560006101000a81548173ffffffffffffffffffffffffffffffffffffffff021916908373ffffffffffffffffffffffffffffffffffffffff16021790555082600360006101000a81548173ffffffffffffffffffffffffffffffffffffffff021916908373ffffffffffffffffffffffffffffffffffffffff16021790555081600460006101000a81548173ffffffffffffffffffffffffffffffffffffffff021916908373ffffffffffffffffffffffffffffffffffffffff16021790555080600760006101000a81548173ffffffffffffffffffffffffffffffffffffffff021916908373ffffffffffffffffffffffffffffffffffffffff16021790555050505062000217565b600080fd5b600073ffffffffffffffffffffffffffffffffffffffff82169050919050565b6000620001838262000156565b9050919050565b620001958162000176565b8114620001a157600080fd5b50565b600081519050620001b5816200018a565b92915050565b600080600060608486031215620001d757620001d662000151565b5b6000620001e786828701620001a4565b9350506020620001fa86828701620001a4565b92505060406200020d86828701620001a4565b9150509250925092565b61187080620002276000396000f3fe608060405234801561001057600080fd5b50600436106100885760003560e01c806355a373d61161005b57806355a373d614610113578063a6e22b0214610131578063d56d229d1461014d578063fa2af9da1461016b57610088565b8063150b7a021461008d57806326232a2e146100bd578063361c1995146100db57806351ed8288146100f7575b600080fd5b6100a760048036038101906100a2919061100e565b610189565b6040516100b491906110cc565b60405180910390f35b6100c561019d565b6040516100d291906110f6565b60405180910390f35b6100f560048036038101906100f09190611111565b6101a3565b005b610111600480360381019061010c9190611151565b610644565b005b61011b610ac8565b60405161012891906111dd565b60405180910390f35b61014b60048036038101906101469190611151565b610aee565b005b610155610d57565b6040516101629190611219565b60405180910390f35b610173610d7d565b6040516101809190611255565b60405180910390f35b600063150b7a0260e01b9050949350505050565b60065481565b6101ab610da3565b3373ffffffffffffffffffffffffffffffffffffffff16600360009054906101000a900473ffffffffffffffffffffffffffffffffffffffff1673ffffffffffffffffffffffffffffffffffffffff16636352211e846040518263ffffffff1660e01b815260040161021d91906110f6565b602060405180830381865afa15801561023a573d6000803e3d6000fd5b505050506040513d601f19601f8201168201806040525081019061025e9190611285565b73ffffffffffffffffffffffffffffffffffffffff16146102b4576040517f08c379a00000000000000000000000000000000000000000000000000000000081526004016102ab9061130f565b60405180910390fd5b600081036102f7576040517f08c379a00000000000000000000000000000000000000000000000000000000081526004016102ee9061137b565b60405180910390fd5b6103016001610df2565b600061030d6001610e08565b905060006127106006548461032291906113ca565b61032c919061143b565b90506000818461033c919061146c565b9050604051806101400160405280600360009054906101000a900473ffffffffffffffffffffffffffffffffffffffff1673ffffffffffffffffffffffffffffffffffffffff1681526020018481526020018681526020013373ffffffffffffffffffffffffffffffffffffffff168152602001600073ffffffffffffffffffffffffffffffffffffffff1681526020018581526020016006548152602001838152602001828152602001600015158152506008600085815260200190815260200160002060008201518160000160006101000a81548173ffffffffffffffffffffffffffffffffffffffff021916908373ffffffffffffffffffffffffffffffffffffffff160217905550602082015181600101556040820151816002015560608201518160030160006101000a81548173ffffffffffffffffffffffffffffffffffffffff021916908373ffffffffffffffffffffffffffffffffffffffff16021790555060808201518160040160006101000a81548173ffffffffffffffffffffffffffffffffffffffff021916908373ffffffffffffffffffffffffffffffffffffffff16021790555060a0820151816005015560c0820151816006015560e0820151816007015561010082015181600801556101208201518160090160006101000a81548160ff021916908315150217905550905050600360009054906101000a900473ffffffffffffffffffffffffffffffffffffffff1673ffffffffffffffffffffffffffffffffffffffff166342842e0e3330886040518463ffffffff1660e01b8152600401610596939291906114af565b600060405180830381600087803b1580156105b057600080fd5b505af11580156105c4573d6000803e3d6000fd5b5050505084837f086e9c7f27450904e3e295c3361874587225d5bc7eda5eece917ebb686788d1f600360009054906101000a900473ffffffffffffffffffffffffffffffffffffffff16336000896006548989600060405161062d989796959493929190611501565b60405180910390a3505050610640610e16565b5050565b61064c610da3565b60006008600083815260200190815260200160002060080154905060006008600084815260200190815260200160002060020154905060006008600085815260200190815260200160002060030160009054906101000a900473ffffffffffffffffffffffffffffffffffffffff169050600060086000868152602001908152602001600020600701549050600073ffffffffffffffffffffffffffffffffffffffff166008600087815260200190815260200160002060040160009054906101000a900473ffffffffffffffffffffffffffffffffffffffff1673ffffffffffffffffffffffffffffffffffffffff161461077d576040517f08c379a0000000000000000000000000000000000000000000000000000000008152600401610774906115cb565b60405180910390fd5b3373ffffffffffffffffffffffffffffffffffffffff166008600087815260200190815260200160002060030160009054906101000a900473ffffffffffffffffffffffffffffffffffffffff1673ffffffffffffffffffffffffffffffffffffffff1603610821576040517f08c379a000000000000000000000000000000000000000000000000000000000815260040161081890611637565b60405180910390fd5b6000818561082f9190611657565b9050600460009054906101000a900473ffffffffffffffffffffffffffffffffffffffff1673ffffffffffffffffffffffffffffffffffffffff166323b872dd3385846040518463ffffffff1660e01b8152600401610890939291906114af565b6020604051808303816000875af11580156108af573d6000803e3d6000fd5b505050506040513d601f19601f820116820180604052508101906108d391906116b7565b50600460009054906101000a900473ffffffffffffffffffffffffffffffffffffffff1673ffffffffffffffffffffffffffffffffffffffff166323b872dd33600760009054906101000a900473ffffffffffffffffffffffffffffffffffffffff16856040518463ffffffff1660e01b815260040161095593929190611705565b6020604051808303816000875af1158015610974573d6000803e3d6000fd5b505050506040513d601f19601f8201168201806040525081019061099891906116b7565b50600360009054906101000a900473ffffffffffffffffffffffffffffffffffffffff1673ffffffffffffffffffffffffffffffffffffffff166342842e0e3033876040518463ffffffff1660e01b81526004016109f8939291906114af565b600060405180830381600087803b158015610a1257600080fd5b505af1158015610a26573d6000803e3d6000fd5b50505050336008600088815260200190815260200160002060040160006101000a81548173ffffffffffffffffffffffffffffffffffffffff021916908373ffffffffffffffffffffffffffffffffffffffff16021790555060016008600088815260200190815260200160002060090160006101000a81548160ff021916908315150217905550610ab86002610df2565b5050505050610ac5610e16565b50565b600460009054906101000a900473ffffffffffffffffffffffffffffffffffffffff1681565b610af6610da3565b6000600860008381526020019081526020016000206002015490503373ffffffffffffffffffffffffffffffffffffffff166008600084815260200190815260200160002060030160009054906101000a900473ffffffffffffffffffffffffffffffffffffffff1673ffffffffffffffffffffffffffffffffffffffff1614610bb5576040517f08c379a0000000000000000000000000000000000000000000000000000000008152600401610bac906117ae565b60405180910390fd5b6008600083815260200190815260200160002060000160009054906101000a900473ffffffffffffffffffffffffffffffffffffffff16600360006101000a81548173ffffffffffffffffffffffffffffffffffffffff021916908373ffffffffffffffffffffffffffffffffffffffff160217905550600360009054906101000a900473ffffffffffffffffffffffffffffffffffffffff1673ffffffffffffffffffffffffffffffffffffffff166342842e0e3033846040518463ffffffff1660e01b8152600401610c8b939291906114af565b600060405180830381600087803b158015610ca557600080fd5b505af1158015610cb9573d6000803e3d6000fd5b50505050336008600084815260200190815260200160002060040160006101000a81548173ffffffffffffffffffffffffffffffffffffffff021916908373ffffffffffffffffffffffffffffffffffffffff16021790555060016008600084815260200190815260200160002060090160006101000a81548160ff021916908315150217905550610d4b6002610df2565b50610d54610e16565b50565b600360009054906101000a900473ffffffffffffffffffffffffffffffffffffffff1681565b600760009054906101000a900473ffffffffffffffffffffffffffffffffffffffff1681565b600260005403610de8576040517f08c379a0000000000000000000000000000000000000000000000000000000008152600401610ddf9061181a565b60405180910390fd5b6002600081905550565b6001816000016000828254019250508190555050565b600081600001549050919050565b6001600081905550565b6000604051905090565b600080fd5b600080fd5b600073ffffffffffffffffffffffffffffffffffffffff82169050919050565b6000610e5f82610e34565b9050919050565b610e6f81610e54565b8114610e7a57600080fd5b50565b600081359050610e8c81610e66565b92915050565b6000819050919050565b610ea581610e92565b8114610eb057600080fd5b50565b600081359050610ec281610e9c565b92915050565b600080fd5b600080fd5b6000601f19601f8301169050919050565b7f4e487b7100000000000000000000000000000000000000000000000000000000600052604160045260246000fd5b610f1b82610ed2565b810181811067ffffffffffffffff82111715610f3a57610f39610ee3565b5b80604052505050565b6000610f4d610e20565b9050610f598282610f12565b919050565b600067ffffffffffffffff821115610f7957610f78610ee3565b5b610f8282610ed2565b9050602081019050919050565b82818337600083830152505050565b6000610fb1610fac84610f5e565b610f43565b905082815260208101848484011115610fcd57610fcc610ecd565b5b610fd8848285610f8f565b509392505050565b600082601f830112610ff557610ff4610ec8565b5b8135611005848260208601610f9e565b91505092915050565b6000806000806080858703121561102857611027610e2a565b5b600061103687828801610e7d565b945050602061104787828801610e7d565b935050604061105887828801610eb3565b925050606085013567ffffffffffffffff81111561107957611078610e2f565b5b61108587828801610fe0565b91505092959194509250565b60007fffffffff0000000000000000000000000000000000000000000000000000000082169050919050565b6110c681611091565b82525050565b60006020820190506110e160008301846110bd565b92915050565b6110f081610e92565b82525050565b600060208201905061110b60008301846110e7565b92915050565b6000806040838503121561112857611127610e2a565b5b600061113685828601610eb3565b925050602061114785828601610eb3565b9150509250929050565b60006020828403121561116757611166610e2a565b5b600061117584828501610eb3565b91505092915050565b6000819050919050565b60006111a361119e61119984610e34565b61117e565b610e34565b9050919050565b60006111b582611188565b9050919050565b60006111c7826111aa565b9050919050565b6111d7816111bc565b82525050565b60006020820190506111f260008301846111ce565b92915050565b6000611203826111aa565b9050919050565b611213816111f8565b82525050565b600060208201905061122e600083018461120a565b92915050565b600061123f82610e34565b9050919050565b61124f81611234565b82525050565b600060208201905061126a6000830184611246565b92915050565b60008151905061127f81610e66565b92915050565b60006020828403121561129b5761129a610e2a565b5b60006112a984828501611270565b91505092915050565b600082825260208201905092915050565b7f596f75206d757374206f776e2074686520746f6b656e00000000000000000000600082015250565b60006112f96016836112b2565b9150611304826112c3565b602082019050919050565b60006020820190508181036000830152611328816112ec565b9050919050565b7f5072696365206d7573742062652067726561746572207468616e203000000000600082015250565b6000611365601c836112b2565b91506113708261132f565b602082019050919050565b6000602082019050818103600083015261139481611358565b9050919050565b7f4e487b7100000000000000000000000000000000000000000000000000000000600052601160045260246000fd5b60006113d582610e92565b91506113e083610e92565b92508282026113ee81610e92565b915082820484148315176114055761140461139b565b5b5092915050565b7f4e487b7100000000000000000000000000000000000000000000000000000000600052601260045260246000fd5b600061144682610e92565b915061145183610e92565b9250826114615761146061140c565b5b828204905092915050565b600061147782610e92565b915061148283610e92565b925082820190508082111561149a5761149961139b565b5b92915050565b6114a981610e54565b82525050565b60006060820190506114c460008301866114a0565b6114d160208301856114a0565b6114de60408301846110e7565b949350505050565b60008115159050919050565b6114fb816114e6565b82525050565b600061010082019050611517600083018b6114a0565b611524602083018a6114a0565b61153160408301896114a0565b61153e60608301886110e7565b61154b60808301876110e7565b61155860a08301866110e7565b61156560c08301856110e7565b61157260e08301846114f2565b9998505050505050505050565b7f4974656d20697320616c726561647920736f6c64000000000000000000000000600082015250565b60006115b56014836112b2565b91506115c08261157f565b602082019050919050565b600060208201905081810360008301526115e4816115a8565b9050919050565b7f43616e6e6f742062757920796f7572206f776e206974656d0000000000000000600082015250565b60006116216018836112b2565b915061162c826115eb565b602082019050919050565b6000602082019050818103600083015261165081611614565b9050919050565b600061166282610e92565b915061166d83610e92565b92508282039050818111156116855761168461139b565b5b92915050565b611694816114e6565b811461169f57600080fd5b50565b6000815190506116b18161168b565b92915050565b6000602082840312156116cd576116cc610e2a565b5b60006116db848285016116a2565b91505092915050565b60006116ef826111aa565b9050919050565b6116ff816116e4565b82525050565b600060608201905061171a60008301866114a0565b61172760208301856116f6565b61173460408301846110e7565b949350505050565b7f43616c6c6572206e6f7420616e206f776e6572206f6620746865206d61726b6560008201527f74206974656d0000000000000000000000000000000000000000000000000000602082015250565b60006117986026836112b2565b91506117a38261173c565b604082019050919050565b600060208201905081810360008301526117c78161178b565b9050919050565b7f5265656e7472616e637947756172643a207265656e7472616e742063616c6c00600082015250565b6000611804601f836112b2565b915061180f826117ce565b602082019050919050565b60006020820190508181036000830152611833816117f7565b905091905056fea2646970667358221220cc7c8f8093114e8a5d4f667c743d450a850a17d342b77118d58fbad488ed210f64736f6c63430008110033",
  "linkReferences": {},
  "deployedLinkReferences": {}
}